:020000040000FA
:200000000C945D000C9485000C9485000C9485000C9485000C9485000C9485000C948500E0
:200020000C9485000C9485000C9485000C9485000C9485000C9485000C9485000C94850098
:200040000C949A050C9485000C940A060C94E4050C9485000C9485000C9485000C9485006F
:200060000C9485000C94850000000000240027002A0000000000250028002B000404040439
:200080000404040402020202020203030303030301020408102040800102040810200102F1
:2000A0000408102000000008000201000003040700000000000000003C0611241FBECFEFD9
:2000C000D8E0DEBFCDBF11E0A0E0B1E0EAECFFE002C005900D92A434B107D9F722E0A4E4A8
:2000E000B1E001C01D92A736B207E1F710E0CDE5D0E004C02197FE010E94C907CC35D10779
:20010000C9F70E9478060C94E3070C940000E1EBF0E09491EDE9F0E02491E9E8F0E0E491A3
:20012000EE2309F43CC0992339F1933091F038F49130A9F0923001F594B59F7D12C097304F
:2001400091F09830A1F09430B9F4909180009F7D03C0909180009F77909380000DC094B564
:200160009F7794BD09C09091B0009F7703C09091B0009F7D9093B000F0E0EE0FFF1FEE58B4
:20018000FF4FA591B4919FB7F894811104C08C912095282302C0EC912E2B2C939FBF0895EF
:2001A0003FB7F8948091B9019091BA01A091BB01B091BC0126B5A89B05C02F3F19F001963A
:2001C000A11DB11D3FBFBA2FA92F982F8827820F911DA11DB11DBC01CD0142E0660F771FDB
:2001E000881F991F4A95D1F708958F929F92AF92BF92CF92DF92EF92FF920E94D0004B01D6
:200200005C0184EFC82EDD24D394E12CF12C0E94D000DC01CB0188199909AA09BB09883EEB
:200220009340A105B10598F321E0C21AD108E108F10888EE880E83E0981EA11CB11CC114E8
:20024000D104E104F10419F7FF90EF90DF90CF90BF90AF909F908F90089580E991E0089513
:20026000CF92DF92EF92FF920F931F93CF93DF936C017A018B01C0E0D0E0CE15DF0581F076
:20028000D8016D918D01D601ED91FC910190F081E02DC6010995892B11F02196EECF7E01FB
:2002A000C701DF91CF911F910F91FF90EF90DF90CF900895089580E090E00895FC01538DF6
:2002C000448D252F30E0842F90E0821B930B541710F0CF96089501970895FC01918D828DBF
:2002E000981761F0828DDF01A80FB11D5D968C91928D9F5F9F73928F90E008958FEF9FEF11
:200300000895FC01918D828D981731F0828DE80FF11D858D90E008958FEF9FEF0895FC016D
:20032000918D228D892F90E0805C9F4F821B91098F73992708958DEB91E00E948F0121E04C
:20034000892B09F420E0822F0895FC01848DDF01A80FB11DA35ABF4F2C91848D90E001964B
:200360008F739927848FA689B7892C93A089B1898C91837080648C93938D848D981306C062
:200380000288F389E02D80818F7D80830895EF92FF920F931F93CF93DF93EC0181E0888FFE
:2003A0009B8D8C8D981305C0E889F989808185FD26C0F62E0B8D10E00F5F1F4F0F731127EE
:2003C000E02E8C8DE8120CC00FB607FCFACFE889F989808185FFF5CFCE010E94A501F1CF8C
:2003E0008B8DFE01E80FF11DE35AFF4FF0829FB7F8940B8FEA89FB89808180620AC09FB76E
:20040000F894EE89FF896083E889F98980818370806480839FBF81E090E0DF91CF911F91F1
:200420000F91FF90EF900895CF93DF93EC01888D8823C9F0EA89FB89808185FD05C0A889C7
:20044000B9898C9186FD0FC00FB607FCF5CF808185FFF2CFA889B9898C9185FFEDCFCE017A
:200460000E94A501E7CFDF91CF91089580E090E0892B29F00E949B0181110C940000089567
:200480000F931F93CF93DF93209145012F5F322F37703093450120FF02C020E801C020E0F4
:2004A00031FD2064347009F02062205FFC01EC01239600E011E06485662331F070E0C801CC
:2004C0000E949A076F5F01C060E06187322F369F030E30E0311D1124311102C0168202C0EA
:2004E00031503683662311F0615061873196CE17DF0709F7DF91CF911F910F9108954F926F
:200500005F926F927F928F92AF92BF92CF92DF92EF920F931F93CF93DF933C01EB010E94DF
:20052000D000F30127853089621B730B6A307105B0F3F894E881F9817BB178606BB1677F6F
:200540006BB9C9848E812C2D281B822F2E83BF844A805B801C850D85DE841F5F0F5FD3944D
:200560009F813885AA84EB844081D20120E0C32F522F322F3081442788943111380F08F4DC
:200580003FEF8195889410FD430F4795889411FD430F4795889412FD430F4795889413FDE3
:2005A000430F4795889414FD430F4795889415FD430F4795889416FD430F4795889417FDC9
:2005C000430F47958894232F1111242F8C0D422F002C7BB900C047FF6BB93181222788945F
:2005E00000C000C0002C6BB93111390F00C0002C7BB900C046FF6BB908F43FEF91958894EC
:2006000000C000C0002C6BB900FD230F00C0002C7BB900C045FF6BB92795889401FD230F8B
:2006200000C000C0002C6BB92795889400C0002C7BB900C044FF6BB902FD230F27958894C2
:2006400000C000C0002C6BB903FD230F00C0002C7BB900C043FF6BB92795889404FD230F47
:2006600000C000C0002C6BB92795889400C0002C7BB900C042FF6BB905FD230F2795889481
:2006800000C000C0002C6BB906FD230F00C0002C7BB900C041FF6BB92795889407FD230F03
:2006A00000C000C0002C6BB92795889400C0002C7BB900C040FF6BB9432F0111422F9A0DB3
:2006C00000C000C0002C6BB900C000C0002C7BB900C047FF6BB932812227889400C000C0A8
:2006E000002C6BB931113C0F00C0002C7BB900C046FF6BB908F43FEFEB0DF11D00C000C024
:20070000002C6BB9D0FC230F00C0002C7BB900C045FF6BB927958894D1FC230F00C000C0EC
:20072000002C6BB92795889400C0002C7BB900C044FF6BB9D2FC230F2795889400C000C0F2
:20074000002C6BB9D3FC230F00C0002C7BB900C043FF6BB927958894D4FC230F00C000C0A8
:20076000002C6BB92795889400C0002C7BB900C042FF6BB9D5FC230F2795889400C000C0B1
:20078000002C6BB9D6FC230F00C0002C7BB900C041FF6BB927958894D7FC230F00C000C064
:2007A000002C6BB92795889400C0002C7BB900C040FF6BB9432FD110422FC19500C000C034
:2007C000002C6BB9CE0D00C000C07BB900C047FF6BB930812227889400C000C0002C6BB92A
:2007E0003111380F00C0002C7BB900C046FF6BB908F43FEF8195889400C000C0002C6BB9FB
:2008000010FD230F00C0002C7BB900C045FF6BB92795889411FD230F00C000C0002C6BB969
:200820002795889400C0002C7BB900C044FF6BB912FD230F2795889400C000C0002C6BB9B0
:2008400013FD230F00C0002C7BB900C043FF6BB92795889414FD230F00C000C0002C6BB925
:200860002795889400C0002C7BB900C042FF6BB915FD230F2795889400C000C0002C6BB96F
:2008800016FD230F00C0002C7BB900C041FF6BB92795889417FD230F00C000C0002C6BB9E1
:2008A0002795889400C0002C7BB900C040FF6BB9432F1111422F8C0D00C000C0002C6BB9AF
:2008C000119709F086CE20EE31E0D2010E94AE07DC01CB01F4E0B695A79597958795FA95FF
:2008E000D1F720E030E0B901EAE94E9E040C611D5E9E600D711D1124650D711D860F971FA2
:20090000A11DB11D893E43E09407A105B10508F434C0885E9340A109B10942E0B695A795B4
:20092000979587954A95D1F747E0849F080E211D949F200D311D1124290F311D609144018B
:2009400070E0860F971F820F931F4091B5015091B6016091B7017091B801292F3327420F34
:20096000531F611D711D4093B5015093B6016093B7017093B8018093440178940E94D00099
:20098000F301708B6787DF91CF911F910F91EF90DF90CF90BF90AF908F907F906F905F9063
:2009A0004F900895539A08950F931F93CF93DF93CDB7DEB762970FB6F894DEBF0FBECDBFB0
:2009C0008C01F901DC011C968C917A8369835C834B835E834D8390819D8791819E8792811E
:2009E0009F87813029F4CE0101960E94400206C01C861B861A86198618861F8283E0888BBC
:200A00001A8A198AD801ED91FC910484F585E02DBE016F5F7F4FC801099562960FB6F89491
:200A2000DEBF0FBECDBFDF91CF911F910F9108950F931F93CF93DF93CDB7DEB762970FB604
:200A4000F894DEBF0FBECDBF8C01F901DC011C968C917A8369835C834B835E834D83908189
:200A60009D8791819E8792819F87813029F4CE0101960E94400206C01C861B861A86198682
:200A800018861F82188A1A8A198AD801ED91FC910484F585E02DBE016F5F7F4FC801099579
:200AA00062960FB6F894DEBF0FBECDBFDF91CF911F910F910895CF93DF9300D000D000D0F6
:200AC000CDB7DEB7AB011C821D821E82DC01ED91FC910190F081E02D19821A821B829E010A
:200AE0002F5F3F4FBE016C5F7F4F099526960FB6F894DEBF0FBECDBFDF91CF910895FC0177
:200B000085859685089580E090E00895009769F0FC0101900020E9F73197AF01481B590BE9
:200B2000BC018DEB91E00C94300180E090E008950E94DE071F920F920FB60F9211242F939B
:200B40003F938F939F93AF93BF938091B5019091B601A091B701B091B8013091B40123E0E0
:200B6000230F2D3720F40196A11DB11D05C026E8230F0296A11DB11D2093B4018093B5014E
:200B80009093B601A093B701B093B8018091B9019091BA01A091BB01B091BC010196A11DAD
:200BA000B11D8093B9019093BA01A093BB01B093BC01BF91AF919F918F913F912F910F90BE
:200BC0000FBE0F901F9018951F920F920FB60F9211242F933F934F935F936F937F938F93C2
:200BE0009F93AF93BF93EF93FF938DEB91E00E94A501FF91EF91BF91AF919F918F917F91EA
:200C00006F915F914F913F912F910F900FBE0F901F9018951F920F920FB60F9211242F935E
:200C20008F939F93EF93FF93E091CD01F091CE018081E091D301F091D40182FD12C09081BF
:200C40008091D6018F5F8F732091D701821751F0E091D601F0E0E354FE4F958F8093D601AF
:200C600001C08081FF91EF919F918F912F910F900FBE0F901F901895EDEBF1E01382128259
:200C800088EE93E0A0E0B0E084839583A683B78386E291E09183808385EC90E095878487E1
:200CA00084EC90E09787868780EC90E0918B808B81EC90E0938B828B82EC90E0958B848B11
:200CC00086EC90E0978B868B118E128E138E148EEAE5F2E08FEF8083128211821486138601
:200CE0008FEF9FEFDC0187839087A187B2870895789484B5826084BD84B5816084BD85B5EF
:200D0000826085BD85B5816085BD80916E00816080936E00109281008091810082608093C7
:200D2000810080918100816080938100809180008160809380008091B10084608093B100BC
:200D40008091B00081608093B00080917A00846080937A0080917A00826080937A00809127
:200D60007A00816080937A0080917A00806880937A001092C100EDE9F0E02491E9E8F0E02C
:200D80008491882399F090E0880F991FFC01E859FF4FA591B491FC01EE58FF4F8591949178
:200DA0008FB7F894EC91E22BEC938FBF81E00E948700E091CD01F091CE0182E08083E0911B
:200DC000C901F091CA011082E091CB01F091CC0180E180831092D501E091D101F091D2016D
:200DE00086E08083E091CF01F091D001808180618083E091CF01F091D00180818860808393
:200E0000E091CF01F091D001808180688083E091CF01F091D00180818F7D808380915B0143
:200E2000811145C010924D0110924C018FEF80935001809351018093520180935301809315
:200E400054018093550181E080935601109258011092570110924F0110924E0180914801D7
:200E600090914901892B31F48AE491E09093490180934801E0914601F0914701309721F02D
:200E80008AE491E0958384838AE491E0909347018093460110925A011092590184E191E0E1
:200EA00090934B0180934A0181E080935B01539A83E691E090934D0180934C018BE190E021
:200EC000909358018093570180915D0290915E02A0915F02B0916002843C29E09207A105FD
:200EE000B10520F484EC99E0A0E0B0E080935D0290935E02A0935F02B093600284E5809385
:200F00005A0284E391E00E9486058EE391E00E94860582E491E00E94860581E00E948700D3
:200F20000E94F50080E00E9487000E94F5000E943602F3CF97FB072E16F4009407D077FDAE
:200F400009D00E94B50707FC05D03EF4909581959F4F0895709561957F4F08950E94CF07AC
:200F6000B7FF0895821B930B0895AA1BBB1B51E107C0AA1FBB1FA617B70710F0A61BB70B11
:200F8000881F991F5A95A9F780959095BC01CD010895EE0FFF1F0590F491E02D0994A29FE1
:200FA000B001B39FC001A39F700D811D1124911DB29F700D811D1124911D089581E090E070
:200FC000F8940C94E307F894FFCF000000009805980598055B057F05830500000000180541
:200FE000D404D2045B057F052D017F0200000000C70130015E0114028F016D018101566507
:0E1000007273696F6E3A2000312E30000A00C4
:207E000001C0DEC0112484B7882361F0982F9A70923041F081FF02C097EF94BF282E80E002
:207E2000BAD0EEC085E08093810082E08093C00088E18093C10086E08093C20080E18093F0
:207E4000C40089E2A8D0259A86E020E33CEF91E0309385002093840096BBB09BFECF1D9A18
:207E6000A8954091C00047FD02C0815089F793E0F92EEE24E39425E0D22E31E1C32E7FD063
:207E8000813479F47CD0182F8CD0123811F480E004C088E0113809F083E06AD080E168D07E
:207EA000EECF823419F484E184D0F8CF853411F485E0FACF853541F462D0C82F60D0D82F87
:207EC000CC0FDD1F6ED0EACF863519F484E071D0DECF843609F02DC052D051D0B82E4FD0D2
:207EE000A82E00E011E04BD0F80181938F01BE12FACF57D0F5E4AF1201C0FFCFFE01F7BE86
:207F0000E89507B600FCFDCFFE01A0E0B1E08D919D910C01E7BEE89511243296BA12F7CF45
:207F2000FE01D7BEE89507B600FCFDCFC7BEE895B5CF843771F423D022D0B82E20D031D049
:207F40008E01F80185918F0113D0BA94B110F9CFA5CF853739F425D08EE10AD085E908D058
:207F60008FE09BCF813509F0ADCF88E014D0AACF9091C00095FFFCCF8093C6000895809171
:207F8000C00087FFFCCF8091C00084FD01C0A8958091C6000895E0E6F0E098E190838083E7
:207FA0000895EDDF803219F088E0F5DFFFCF84E1DFCFCF93C82FE3DFC150E9F7CF91F1CF54
:207FC000FC010A0167BFE895112407B600FCFDCF667029F0452B19F481E187BFE89508950E
:027FFE00000879
:0400000500007E0079
:00000001FF
