:100000000C9435000C945D000C945D000C945D0024
:100010000C945D000C945D000C945D000C945D00EC
:100020000C945D000C945D000C945D000C945D00DC
:100030000C945D000C945D000C945D000C945D00CC
:100040000C9436050C945D000C945D000C945D00DE
:100050000C945D000C945D000C945D000C945D00AC
:100060000C945D000C945D00580611241FBECFEF68
:10007000D8E0DEBFCDBF11E0A0E0B1E0E0EEFDE0F2
:1000800002C005900D92A232B107D9F721E0A2E299
:10009000B1E001C01D92A23BB207E1F710E0C5E359
:1000A000D0E004C02197FE010E94D406C433D107DA
:1000B000C9F70E9480050C94EE060C9400003FB72F
:1000C000F8948091910190919201A0919301B09147
:1000D000940126B5A89B05C02F3F19F00196A11DDC
:1000E000B11D3FBFBA2FA92F982F8827820F911DCE
:1000F000A11DB11DBC01CD0142E0660F771F881F15
:10010000991F4A95D1F708953F924F925F926F924F
:100110007F928F929F92AF92BF92CF92DF92EF9297
:10012000FF920F931F93CF93DF9300D01F92CDB711
:10013000DEB7F82E8091A2019091A301A091A401B5
:10014000B091A501892B8A2B8B2BE9F00E945F00CF
:100150000091AE011091AF012091B0013091B10139
:10016000DC01CB01801B910BA20BB30B0091A20110
:100170001091A3012091A4013091A501801791074E
:10018000A207B307B8F20E945F006093AE017093BC
:10019000AF018093B0019093B101E091AA01F09179
:1001A000AB01309759F04091A6015091A7016091A1
:1001B000A8017091A9018F2D0995F82E0091AC012D
:1001C0001091AD014F2C512C612C712C0115110592
:1001D00009F45FC0D8011C96EC901C978091A00197
:1001E0009091A1018436910510F41C961C92D801BF
:1001F000ED91FC91A280B38019821A821B82F110CA
:1002000014C0F80145855685628173819E012F5F78
:100210003F4FC801F5010995D8011C96EC921C9737
:1002200014960D911C911597D1CFF8013696CE01F9
:1002300001966C01480199E0890E911C21912223BD
:1002400009F132803320F1F0822F90E0A0E0B0E09D
:100250009C01AD012F5F3F4F4F4F5F4FC301B20174
:100260000E9468069B01AC01832D90E0A0E0B0E005
:10027000BC01CD016F5F7F4F8F4F9F4F0E9468067B
:10028000D6018C93BFEFCB1ADB0AE815F905B1F65E
:10029000B8CF80919D0190919E019C012F5F3F4FAF
:1002A00030939E0120939D0149970CF447C08FB76E
:1002B000F894009195011091960120919701309149
:1002C00098018FBFE0919D01F0919E0188EE93E02F
:1002D000E89FB001E99F700DF89F700D1124072E63
:1002E000000C880B990BC0909901D0909A01E09076
:1002F0009B01F0909C01A90198012C193D094E0920
:100300005F090E948C063093A1012093A0011092F6
:100310009E0110929D012FB7F894809195019091C4
:100320009601A0919701B09198012FBF80939901F8
:1003300090939A01A0939B01B0939C010F900F9012
:100340000F90DF91CF911F910F91FF90EF90DF9071
:10035000CF90BF90AF909F908F907F906F905F9065
:100360004F903F9008958F929F92AF92BF92CF92FD
:10037000DF92EF92FF920E945F004B015C0180EDE3
:10038000C82E87E0D82EE12CF12C0E945F00DC0102
:10039000CB0188199909AA09BB09883E9340A10598
:1003A000B10598F321E0C21AD108E108F10888EEFE
:1003B000880E83E0981EA11CB11CC114D104E10475
:1003C000F10419F7FF90EF90DF90CF90BF90AF90BE
:1003D0009F908F90089580E991E008950F931F9367
:1003E000CF93DF93209123012F5F322F377030930B
:1003F000230120FF02C020E801C020E031FD20647D
:10040000347009F02062205FFC01EC01239600E0CB
:1004100011E06485662331F070E0C8010E9478061F
:100420006F5F01C060E06187322F369F030E30E0BE
:10043000311D1124311102C0168202C031503683A1
:10044000662311F0615061873196CE17DF0709F7F7
:10045000DF91CF911F910F9108954F925F926F920C
:100460007F928F92AF92BF92CF92DF92EF920F93D3
:100470001F93CF93DF933C01EB010E945F00F301D8
:1004800027853089621B730B6A307105B0F3F894CD
:10049000E881F9817BB170686BB16F776BB9C98402
:1004A0008E812C2D281B822F2E83BF844A805B8057
:1004B0001C850D85DE841F5F0F5FD3949F81388577
:1004C000AA84EB844081D20120E0C32F522F322F27
:1004D0003081442788943111380F08F43FEF81951B
:1004E000889410FD430F4795889411FD430F47955D
:1004F000889412FD430F4795889413FD430F479549
:10050000889414FD430F4795889415FD430F479534
:10051000889416FD430F4795889417FD430F479520
:100520008894232F1111242F8C0D422F002C7BB97E
:1005300000C047FF6BB931812227889400C000C0FA
:10054000002C6BB93111390F00C0002C7BB900C0F1
:1005500046FF6BB908F43FEF9195889400C000C046
:10056000002C6BB900FD230F00C0002C7BB900C02C
:1005700045FF6BB92795889401FD230F00C000C08B
:10058000002C6BB92795889400C0002C7BB900C063
:1005900044FF6BB902FD230F2795889400C000C06B
:1005A000002C6BB903FD230F00C0002C7BB900C0E9
:1005B00043FF6BB92795889404FD230F00C000C04A
:1005C000002C6BB92795889400C0002C7BB900C023
:1005D00042FF6BB905FD230F2795889400C000C02A
:1005E000002C6BB906FD230F00C0002C7BB900C0A6
:1005F00041FF6BB92795889407FD230F00C000C009
:10060000002C6BB92795889400C0002C7BB900C0E2
:1006100040FF6BB9432F0111422F9A0D00C000C05B
:10062000002C6BB900C000C0002C7BB900C047FF94
:100630006BB932812227889400C000C0002C6BB9AE
:1006400031113C0F00C0002C7BB900C046FF6BB9D4
:1006500008F43FEFEB0DF11D00C000C0002C6BB99A
:10066000D0FC230F00C0002C7BB900C045FF6BB944
:1006700027958894D1FC230F00C000C0002C6BB9D3
:100680002795889400C0002C7BB900C044FF6BB94B
:10069000D2FC230F2795889400C000C0002C6BB9B2
:1006A000D3FC230F00C0002C7BB900C043FF6BB903
:1006B00027958894D4FC230F00C000C0002C6BB990
:1006C0002795889400C0002C7BB900C042FF6BB90D
:1006D000D5FC230F2795889400C000C0002C6BB96F
:1006E000D6FC230F00C0002C7BB900C041FF6BB9C2
:1006F00027958894D7FC230F00C000C0002C6BB94D
:100700002795889400C0002C7BB900C040FF6BB9CE
:10071000432FD110422FC19500C000C0002C6BB9EF
:10072000CE0D00C000C07BB900C047FF6BB930815F
:100730002227889400C000C0002C6BB93111380FFB
:1007400000C0002C7BB900C046FF6BB908F43FEF36
:100750008195889400C000C0002C6BB910FD230F58
:1007600000C0002C7BB900C045FF6BB92795889469
:1007700011FD230F00C000C0002C6BB92795889491
:1007800000C0002C7BB900C044FF6BB912FD230FE1
:100790002795889400C000C0002C6BB913FD230F6F
:1007A00000C0002C7BB900C043FF6BB9279588942B
:1007B00014FD230F00C000C0002C6BB9279588944E
:1007C00000C0002C7BB900C042FF6BB915FD230FA0
:1007D0002795889400C000C0002C6BB916FD230F2C
:1007E00000C0002C7BB900C041FF6BB927958894ED
:1007F00017FD230F00C000C0002C6BB9279588940B
:1008000000C0002C7BB900C040FF6BB9432F111111
:10081000422F8C0D00C000C0002C6BB9119709F05D
:1008200086CE20EE31E0D2010E94AE06DC01CB0183
:10083000F4E0B695A79597958795FA95D1F720E0BE
:1008400030E0B901EAE94E9E040C611D5E9E600D28
:10085000711D1124650D711D860F971FA11DB11DFE
:10086000893E43E09407A105B10508F434C0885ED1
:100870009340A109B10942E0B695A7959795879550
:100880004A95D1F747E0849F080E211D949F200DC3
:10089000311D1124290F311D6091220170E0860F56
:1008A000971F820F931F409195015091960160917F
:1008B000970170919801292F3327420F531F611D13
:1008C000711D409395015093960160939701709329
:1008D00098018093220178940E945F00F301708B4D
:1008E0006787DF91CF911F910F91EF90DF90CF90AD
:1008F000BF90AF908F907F906F905F904F900895D2
:10090000579A08950F931F93CF93DF93CDB7DEB718
:1009100062970FB6F894DEBF0FBECDBF8C01F90110
:10092000DC011C968C917A8369835C834B835E83A4
:100930004D8390819D8791819E8792819F87813091
:1009400029F4CE0101960E94EE0106C01C861B868A
:100950001A86198618861F8283E0888B1A8A198A5C
:10096000D801ED91FC910484F585E02DBE016F5F07
:100970007F4FC801099562960FB6F894DEBF0FBE8F
:10098000CDBFDF91CF911F910F9108950F931F93CA
:10099000CF93DF93CDB7DEB762970FB6F894DEBF83
:1009A0000FBECDBF8C01F901DC011C968C917A83BE
:1009B00069835C834B835E834D8390819D879181A6
:1009C0009E8792819F87813029F4CE0101960E94F3
:1009D000EE0106C01C861B861A86198618861F82A1
:1009E000188A1A8A198AD801ED91FC910484F58538
:1009F000E02DBE016F5F7F4FC801099562960FB66B
:100A0000F894DEBF0FBECDBFDF91CF911F910F9144
:100A10000895CF93DF9300D000D000D0CDB7DEB7DC
:100A2000AB011C821D821E82DC01ED91FC910190C4
:100A3000F081E02D19821A821B829E012F5F3F4FA9
:100A4000BE016C5F7F4F099526960FB6F894DEBF06
:100A50000FBECDBFDF91CF910895FC0185859685AE
:100A6000089580E090E008950E94E9061F920F9299
:100A70000FB60F9211242F933F938F939F93AF93B1
:100A8000BF938091950190919601A0919701B091AB
:100A900098013091900123E0230F2D3720F4019627
:100AA000A11DB11D05C026E8230F0296A11DB11D91
:100AB000209390018093950190939601A0939701C4
:100AC000B09398018091910190919201A09193012E
:100AD000B09194010196A11DB11D80939101909355
:100AE0009201A0939301B0939401BF91AF919F9114
:100AF0008F913F912F910F900FBE0F901F901895DF
:100B0000789484B5826084BD84B5816084BD85B5E8
:100B1000826085BD85B5816085BD80916E008160F4
:100B200080936E001092810080918100826080939A
:100B3000810080918100816080938100809180009C
:100B40008160809380008091B10084608093B100C7
:100B50008091B00081608093B00080917A008460C1
:100B600080937A0080917A00826080937A008091ED
:100B70007A00816080937A0080917A008068809307
:100B80007A001092C100209A80913701811145C0EE
:100B900010922901109228018FEF80932C018093ED
:100BA0002D0180932E0180932F018093300180933B
:100BB000310181E0809332011092340110923301AF
:100BC00010922B0110922A018091AC019091AD01FD
:100BD000892B31F486E291E09093AD018093AC01D2
:100BE000E0912401F0912501309721F086E291E017
:100BF0009583848386E291E090932501809324017C
:100C0000109236011092350184E191E09093270112
:100C10008093260181E080933701579A8FE391E01A
:100C200090932901809328018BE190E09093340107
:100C3000809333018091A2019091A301A091A4011E
:100C4000B091A501843C29E09207A105B10520F4EB
:100C500084EC99E0A0E0B0E08093A2019093A3011E
:100C6000A093A401B093A501C0E0D0E01FEF289AA3
:100C700010933F01109240011092410180919F0119
:100C80000E9484000E94B30185B1807185B91092E1
:100C90003F01109240011092410180919F010E94FA
:100CA00084000E94B301209711F30E940000DFCF5F
:100CB000EFE9F1E08FEF80831282118214861386B0
:100CC0008FEF9FEFDC0187839087A187B28708951C
:100CD000DB018F939F930E94B506BF91AF91A29FB6
:100CE000800D911DA39F900DB29F900D112408952A
:100CF00097FB072E16F4009407D077FD09D00E94C9
:100D0000C00607FC05D03EF4909581959F4F08954D
:100D1000709561957F4F0895A1E21A2EAA1BBB1B07
:100D2000FD010DC0AA1FBB1FEE1FFF1FA217B307B7
:100D3000E407F50720F0A21BB30BE40BF50B661FCD
:100D4000771F881F991F1A9469F760957095809591
:100D500090959B01AC01BD01CF0108950E94DA0678
:100D6000B7FF0895821B930B08950E94DA06A59F92
:100D7000900DB49F900DA49F800D911D1124089596
:100D8000AA1BBB1B51E107C0AA1FBB1FA617B707B1
:100D900010F0A61BB70B881F991F5A95A9F78095CD
:100DA0009095BC01CD010895EE0FFF1F0590F491C1
:100DB000E02D0994A29FB001B39FC001A39F700DC5
:100DC000811D1124911DB29F700D811D1124911D53
:100DD000089581E090E0F8940C94EE06F894FFCF2B
:100DE0000000000034053405340509052D053105E2
:100DF00000000000C6048204800409052D05EB01F3
:020E00002D02C1
:00000001FF
